:100000000C9462000C948A000C948A000C948A0070
:100010000C948A000C948A000C948A000C948A0038
:100020000C948A000C948A000C948A000C948A0028
:100030000C948A000C948A000C948A000C948A0018
:100040000C94EF020C948A000C94CF000C948A005C
:100050000C948A000C948A000C948A000C948A00F8
:100060000C948A000C948A000000000024002700F1
:100070002A0000000000250028002B0000000000DE
:1000800023002600290004040404040404040202DA
:100090000202020203030303030301020408102007
:1000A0004080010204081020010204081020000012
:1000B0000007000201000003040600000000000029
:1000C0000000880111241FBECFEFD8E0DEBFCDBFF6
:1000D00011E0A0E0B1E0E4E2F9E002C005900D9289
:1000E000A831B107D9F711E0A8E1B1E001C01D9234
:1000F000A93BB107E1F710E0C4ECD0E004C02297BF
:10010000FE010E948C04C23CD107C9F70E94C800BE
:100110000C9490040C940000809118010E949B03A1
:10012000BC018EE991E00E94DF02809118010E94DB
:100130009B038E35910564F480910B0161E00E9470
:10014000D9038EE991E060E071E00E9415020BC0D6
:100150008EE991E065E071E00E94150280910B014B
:1001600060E00E94D9036AE070E080E090E00E94C5
:100170003703089580910B0161E00E94B9038EE975
:1001800091E040E855E260E070E00E940C010895C3
:100190000E9461030E94BA000E948C00FDCF1F9252
:1001A0000F920FB60F9211242F933F934F935F93AB
:1001B0006F937F938F939F93AF93BF93EF93FF932F
:1001C0004091C600E0919A01F0919B01CF01019608
:1001D00060E870E00E9426049C0180919C0190914F
:1001E0009D012817390739F0E65EFE4F40833093B2
:1001F0009B0120939A01FF91EF91BF91AF919F9145
:100200008F917F916F915F914F913F912F910F90BF
:100210000FBE0F901F901895AF92BF92CF92DF92B2
:10022000EF92FF920F931F93CF93DF936C017A01AC
:100230008B01DC011496AD90BC901597CB01BA01EF
:1002400022E030E040E050E00E945B04205C3D4B47
:10025000404F5F4FCA01B901A80197010E945B049A
:10026000C901DA010197A109B109292F3A2F4B2FB2
:10027000552747FD5A950196A11DB11DE50128831B
:10028000E601EE81FF8181508083EA85FB85208134
:1002900041E050E0CA010E8402C0880F991F0A9401
:1002A000E2F7282B2083EA85FB852081CA010F8491
:1002B00002C0880F991F0A94E2F7282B2083EA8551
:1002C000FB858081088802C0440F551F0A94E2F71D
:1002D000842B8083DF91CF911F910F91FF90EF903E
:1002E000DF90CF90BF90AF900895FC01A085B185BD
:1002F00021898C9190E0022E02C0959587950A94F1
:10030000E2F780FFF6CF0484F585E02D6083089541
:1003100082E191E090939F0180939E018AE191E0B8
:100320009093A1018093A00185EC90E09093A301AC
:100330008093A20184EC90E09093A5018093A401A6
:1003400080EC90E09093A7018093A60181EC90E06F
:100350009093A9018093A80186EC90E09093AB0163
:100360008093AA0184E08093AC0183E08093AD0187
:1003700087E08093AE0185E08093AF0108950F93ED
:100380001F93CF93DF938C01EB0109C02196D80115
:10039000ED91FC910190F081E02DC80109956881F3
:1003A0006623A1F7DF91CF911F910F910895EF92EE
:1003B000FF920F931F93CF93DF938C017B01EA0190
:1003C0000CC0D7016D917D01D801ED91FC91019098
:1003D000F081E02DC80109952197209791F7DF91D1
:1003E000CF911F910F91FF90EF900895DC01ED9157
:1003F000FC910280F381E02D099508950F931F93DE
:100400008C01DC01ED91FC910190F081E02D6DE01B
:100410000995D801ED91FC910190F081E02DC80182
:100420006AE009951F910F9108950F931F938C0116
:100430000E94F601C8010E94FE011F910F910895CC
:100440002F923F924F925F926F927F928F929F92E4
:10045000AF92BF92CF92DF92EF92FF920F931F93D2
:10046000DF93CF93CDB7DEB7A0970FB6F894DEBF7A
:100470000FBECDBF1C016A017B014115510561050D
:10048000710549F4DC01ED91FC910190F081E02DC2
:1004900060E3099554C0882499245401422E5524C0
:1004A0006624772401E010E00C0F1D1F080D191DB4
:1004B000C701B601A30192010E943904F8016083CB
:1004C0000894811C911CA11CB11CC701B601A30199
:1004D00092010E943904C901DA016C017D01C11445
:1004E000D104E104F104F1F681E0E82EF12CEC0EE8
:1004F000FD1EE80CF91C3E010894611C711CD5011D
:10050000C4010197A109B1096C01C818D90814C028
:10051000F601EE0DFF1D60816A3010F4605D01C0D0
:10052000695CD101ED91FC910190F081E02DC10158
:1005300009950894E108F1086E147F0449F7A09624
:100540000FB6F894DEBF0FBECDBFCF91DF911F91E4
:100550000F91FF90EF90DF90CF90BF90AF909F9062
:100560008F907F906F905F904F903F902F90089565
:10057000EF92FF920F931F93CF93DF93EC017A01D9
:100580008B0177FF0FC0E881F9810190F081E02DA8
:100590006DE2099510950095F094E094E11CF11C32
:1005A000011D111DCE01B801A7012AE00E94200201
:1005B000DF91CF911F910F91FF90EF9008950F93CE
:1005C0001F938C01AB01662757FD6095762F0E9423
:1005D000B802C8010E94FE011F910F9108951F9259
:1005E0000F920FB60F9211242F933F938F939F93E7
:1005F000AF93BF938091B4019091B501A091B601E2
:10060000B091B7013091B8010196A11DB11D232F02
:100610002D5F2D3720F02D570196A11DB11D209380
:10062000B8018093B4019093B501A093B601B09343
:10063000B7018091B0019091B101A091B201B09148
:10064000B3010196A11DB11D8093B0019093B1013A
:10065000A093B201B093B301BF91AF919F918F91DD
:100660003F912F910F900FBE0F901F901895EF9212
:10067000FF920F931F937B018C018FB7F8944091E9
:10068000B4015091B5016091B6017091B7018FBF6F
:100690002FB7F8948091B4019091B501A091B60163
:1006A000B091B7012FBF841B950BA60BB70BE816B3
:1006B000F9060A071B0760F71F910F91FF90EF9053
:1006C0000895789484B5826084BD84B5816084BDCA
:1006D00085B5826085BD85B5816085BDEEE6F0E0BB
:1006E000808181608083E1E8F0E0808182608083A6
:1006F000808181608083E0E8F0E080818160808398
:10070000E1EBF0E0808184608083E0EBF0E08081C9
:1007100081608083EAE7F0E080818460808380816B
:100720008260808380818160808380818068808313
:100730001092C1000895877090910D019295990FC4
:10074000990F907C982B90937C0080917A00806424
:1007500080937A0080917A0086FDFCCF209178000A
:1007600040917900942F80E030E0282B392BC9018B
:100770000895282F30E0C90186569F4FFC019491BF
:100780002A573F4FF9018491882391F0E82FF0E038
:10079000EE0FFF1FE859FF4FA591B491662329F48E
:1007A0008C91909589238C9308958C91892B8C93AF
:1007B0000895482F50E0CA0182559F4FFC012491B3
:1007C000CA0186569F4FFC0194914A575F4FFA0128
:1007D00034913323D1F1222331F1233021F480915C
:1007E00080008F7705C0243031F4809180008F7DA8
:1007F0008093800018C0213019F484B58F7704C02D
:10080000223021F484B58F7D84BD0DC0263021F4C3
:100810008091B0008F7705C0273029F48091B00017
:100820008F7D8093B000E32FF0E0EE0FFF1FEE58B6
:10083000FF4FA591B491662329F48C91909589235B
:100840008C9308958C91892B8C93089597FB092E96
:1008500007260AD077FD04D049D006D000201AF42C
:10086000709561957F4F0895F6F7909581959F4F0C
:100870000895A1E21A2EAA1BBB1BFD010DC0AA1FE1
:10088000BB1FEE1FFF1FA217B307E407F50720F0F9
:10089000A21BB30BE40BF50B661F771F881F991F74
:1008A0001A9469F760957095809590959B01AC01BD
:1008B000BD01CF01089597FB092E05260ED057FDE7
:1008C00004D0D7DF0AD0001C38F4509540953095FD
:1008D00021953F4F4F4F5F4F0895F6F790958095C4
:1008E000709561957F4F8F4F9F4F0895AA1BBB1B3B
:1008F00051E107C0AA1FBB1FA617B70710F0A61B20
:10090000B70B881F991F5A95A9F780959095BC0140
:10091000CD010895EE0FFF1F0590F491E02D09948D
:04092000F894FFCF79
:100924004441524B004C49474854000D000100001B
:0809340000007501BF01D701AD
:00000001FF
