:100000000C9462000C948A000C948A000C948A0070
:100010000C948A000C948A000C948A000C948A0038
:100020000C948A000C948A000C948A000C948A0028
:100030000C948A000C948A000C948A000C948A0018
:100040000C94BA010C948A000C948A000C948A00D7
:100050000C948A000C948A000C948A000C948A00F8
:100060000C948A000C948A000000000024002700F1
:100070002A0000000000250028002B0000000000DE
:1000800023002600290004040404040404040202DA
:100090000202020203030303030301020408102007
:1000A0004080010204081020010204081020000012
:1000B0000007000201000003040600000000000029
:1000C00000008C0011241FBECFEFD8E0DEBFCDBFF3
:1000D00011E0A0E0B1E0E0E9F6E002C005900D9289
:1000E000A431B107D9F711E0A4E1B1E001C01D923C
:1000F000A532B107E1F710E0C4ECD0E004C02297CC
:10010000FE010E944203C23CD107C9F70E94B3011D
:100110000C9446030C940000809108019091090111
:10012000A0910A01B0910B018093160190931701E1
:10013000A0931801B09319010895DF92EF92FF92F6
:100140000F931F93CF93DF93D82EEB0110921B01D7
:1001500010921A017A010027F7FC0095102F19C0A0
:100160008D2D61E00E94A402C801B7010E94020225
:100170008D2D60E00E94A402C801B7010E94020216
:1001800080911A0190911B01019690931B0180931D
:100190001A0180911A0190911B018C179D0704F39D
:1001A000DF91CF911F910F91FF90EF90DF90089515
:1001B000809114010E94660220911001309111017A
:1001C000821793070CF067C0809104010E94F1022E
:1001D000019721F510921601109217011092180143
:1001E00010921901809102010E94F102019709F019
:1001F0009FC08091000161E00E94A40260910C0107
:1002000070910D0180910E0190910F010E940202E8
:100210008091000160E00E94A4020895809116017F
:1002200090911701A0911801B09119010097A105B3
:10023000B10521F5809100019091010161E070E02C
:1002400044EF51E00E949D008091040161E00E9412
:10025000A4026091060170910701882777FD8095BF
:10026000982F0E940202809100019091010162E0AA
:1002700070E044EF51E00E949D000895885E934035
:10028000A040B0408093160190931701A0931801ED
:10029000B093190134C0209116013091170140919B
:1002A0001801509119018091080190910901A091C4
:1002B0000A01B0910B01281739074A075B0730F193
:1002C000809104010E94F1020197C9F4809100011C
:1002D0009091010163E070E04AEF50E00E949D00C0
:1002E0008091040160E00E94A4028091000160E01E
:1002F0000E94A4026AEF70E080E090E004C068EE23
:1003000073E080E090E00E940202089528513C4F83
:100310004F4F5F4F20931601309317014093180100
:100320005093190168EE73E080E090E00E940202B1
:1003300008958091020160E00E9484028091020190
:1003400060E00E94A4028091040161E00E948402A6
:100350008091000161E00E9484028091000160E0D0
:100360000E94A40208950E942C020E9499010E94FA
:10037000D800FDCF1F920F920FB60F9211242F932A
:100380003F938F939F93AF93BF9380912001909160
:100390002101A0912201B091230130912401019605
:1003A000A11DB11D232F2D5F2D3720F02D57019654
:1003B000A11DB11D20932401809320019093210160
:1003C000A0932201B093230180911C0190911D0103
:1003D000A0911E01B0911F010196A11DB11D809336
:1003E0001C0190931D01A0931E01B0931F01BF91AA
:1003F000AF919F918F913F912F910F900FBE0F90D2
:100400001F901895EF92FF920F931F937B018C0121
:100410008FB7F89440912001509121016091220101
:10042000709123018FBF2FB7F89480912001909194
:100430002101A0912201B09123012FBF841B950BB4
:10044000A60BB70BE816F9060A071B0760F71F9102
:100450000F91FF90EF900895789484B5826084BDE9
:1004600084B5816084BD85B5826085BD85B58160B8
:1004700085BDEEE6F0E0808181608083E1E8F0E018
:10048000808182608083808181608083E0E8F0E009
:10049000808181608083E1EBF0E0808184608083F3
:1004A000E0EBF0E0808181608083EAE7F0E080812A
:1004B000846080838081826080838081816080838A
:1004C0008081806880831092C10008958F70909120
:1004D00012019295990F990F907C982B90937C0024
:1004E00080917A00806480937A0080917A0086FD02
:1004F000FCCF2091780040917900942F80E030E08B
:10050000282B392BC9010895282F30E0C9018656C0
:100510009F4FFC0194912A573F4FF9018491882302
:1005200091F0E82FF0E0EE0FFF1FE859FF4FA59183
:10053000B491662329F48C91909589238C93089526
:100540008C91892B8C930895482F50E0CA018255D5
:100550009F4FFC012491CA0186569F4FFC01949144
:100560004A575F4FFA0134913323D1F1222331F1FD
:10057000233021F4809180008F7705C0243031F43E
:10058000809180008F7D8093800018C0213019F405
:1005900084B58F7704C0223021F484B58F7D84BD6B
:1005A0000DC0263021F48091B0008F7705C0273030
:1005B00029F48091B0008F7D8093B000E32FF0E0AC
:1005C000EE0FFF1FEE58FF4FA591B491662329F45B
:1005D0008C91909589238C9308958C91892B8C9381
:1005E0000895682F70E0CB0182559F4FFC01249144
:1005F000CB0186569F4FFC0144916A577F4FFB0108
:100600009491992319F420E030E038C0222331F18D
:10061000233021F4809180008F7705C0243031F49D
:10062000809180008F7D8093800018C0213019F464
:1006300084B58F7704C0223021F484B58F7D84BDCA
:100640000DC0263021F48091B0008F7705C027308F
:1006500029F48091B0008F7D8093B000892F90E0C5
:10066000880F991F84589F4FFC01A591B4918C91DC
:1006700020E030E0842311F021E030E0C90108954A
:10068000EE0FFF1F0590F491E02D0994F894FFCF31
:100690000D0003000700307510270000983A000095
:0406A0005E000100F7
:00000001FF
